S01500004672656552544F535F415050312E73726563D4
S11300000C942A000C9447000C9447000C9447006D
S11300100C9447000C9447000C9447000C948B04F8
S11300200C9447000C9447000C9447000C94470030
S11300300C9447000C9447000C9447000C94470020
S11300400C9447000C9447000C9447000C94470010
S11300500C94470011241FBECFE5D8E0DEBFCDBF0E
S113006010E0A0E6B0E0E2E7F0E102C005900D92F6
S1130070A039B107D9F725E0A0E9B0E001C01D928D
S1130080AF30B207E1F70E9457030C9437080C9481
S11300900000E5E9F0E08AE990E09183808313822F
S11300A01282E1E9F0E087EE93E093838283118288
S11300B01082A9E9B0E014969C938E93139712963C
S11300C0FC93EE93119708950F931F93CF93DF93AF
S11300D0EC010E94910680919000811105C00E945C
S11300E0490081E080939000209709F02496CE0186
S11300F00197863E934008F056C0E0919500F09138
S11301009600A5E9B0E002C0DF01FC018281938181
S11301108C179D0720F4808191810097A9F780E0D6
S1130120E139F80709F442C00D911C9111970C5F55
S11301301F4F808191818D939C93828193818C1B2D
S11301409D0B8930910510F1AF014C0F5D1FDA0151
S113015013969C938E931297D383C28312962D91F8
S11301603C91139765E970E001C0BD01EB01A881E2
S1130170B98112968D919C91139782179307A8F3D6
S1130180EA01B983A883DB014D935C932281338117
S11301908091600090916100821B930B90936100A9
S11301A08093600005C000E010E002C000E010E0B1
S11301B00E942107C801DF91CF911F910F910895EB
S11301C00F931F93CF93DF93009741F1EC018C01C0
S11301D0045011090E949106F80142815381A5E956
S11301E0B0E001C0DF01ED91FC91119722813381D0
S11301F024173507B8F32497F983E8830D931C93E8
S11302008A819B812091600030916100820F931F4D
S113021090936100809360000E942107DF91CF9149
S11302201F910F9108959BB39B7F9BBB84FF04C0D8
S11302309BB390619BBB03C09BB39F7E9BBB85FF1D
S113024004C09BB390629BBB03C09BB39F7D9BBBCD
S113025086FF04C09BB390649BBB03C09BB39F7B8E
S11302609BBB882324F49BB390689BBB03C09BB3C4
S11302709F779BBB9BB398609BBBEFE9FFE03197F3
S1130280F1F700C000009BB3977F9BBBEFE9FFE051
S11302903197F1F700C0000080FF04C09BB3906168
S11302A09BBB03C09BB39F7E9BBB81FF04C09BB3DE
S11302B090629BBB03C09BB39F7D9BBB82FF04C02A
S11302C09BB390649BBB03C09BB39F7B9BBB83FF8F
S11302D004C08BB380688BBB03C08BB38F778BBB9D
S11302E08BB388608BBB8FE99FE00197F1F700C067
S11302F000008BB3877F8BBBEFE9FFE03197F1F709
S113030000C0000008958AB38C6F8ABB83E00E940A
S113031013018FE79EE30197F1F700C0000083E02B
S11303200E9413018FE79EE30197F1F700C00000DC
S113033083E00E9413018FE79EE30197F1F700C069
S1130340000082E00E94130188E20E94130188E009
S11303500E94130181E00E94130186E00E941301B0
S11303608CE00E9413019FEF29EF80E09150204020
S11303708040E1F700C0000008959BB394609BBBEC
S113038084FF04C09BB390619BBB03C09BB39F7E5F
S11303909BBB85FF04C09BB390629BBB03C09BB314
S11303A09F7D9BBB86FF04C09BB390649BBB03C033
S11303B09BB39F7B9BBB882324F49BB390689BBB1C
S11303C003C09BB39F779BBB9BB398609BBBEFE938
S11303D0FFE03197F1F700C000009BB3977F9BBB10
S11303E0EFE9FFE03197F1F700C0000080FF04C09F
S11303F09BB390619BBB03C09BB39F7E9BBB81FF60
S113040004C09BB390629BBB03C09BB39F7D9BBB0B
S113041082FF04C09BB390649BBB03C09BB39F7BD0
S11304209BBB83FF04C08BB380688BBB03C08BB3BF
S11304308F778BBB8BB388608BBB8FE99FE0019771
S1130440F1F700C000008BB3877F8BBBEFE9FFE0BF
S11304503197F1F700C0000008951F93CF93DF9305
S113046000D000D01F92CDB7DEB7AC01892BA9F51F
S113047080E3840F0E94BD0144C09A01ADECBCEC42
S11304800E942808969587959695879596958795C1
S11304909C01220F331F880F991F880F991F880F03
S11304A0991F820F931F9A01281B390BC901E1E0A0
S11304B0F0E0EC0FFD1FE10FF11D17FDFA95805DD3
S11304C080839A010E942808AC0156954795569559
S11304D04795569547951F5F01C010E0411551059A
S11304E061F611500CC0E1E0F0E0EC0FFD1FE10FEC
S11304F0F11D17FDFA9580810E94BD0111501F3F27
S113050091F70F900F900F900F900F90DF91CF9174
S11305101F9108950F931F93CF938C01C0E003C0E4
S11305200E94BD01CF5FF801EC0FF11D80818111A4
S1130530F7CFCF911F910F910895FC0103969283F9
S113054081832FEF3FEF34832383968385839087C2
S1130550878310820895FC01118610860895CF9335
S1130560DF939C01FB01DC011196CD91DC91129784
S1130570D383C2838C819D81958384838C819D8167
S1130580DC0113967C936E9312977D836C83318781
S11305902087F90180818F5F8083DF91CF91089557
S11305A0CF93DF93EB01488159814F3F2FEF5207DF
S11305B021F4FC01A781B0850DC0DC01139601C0B4
S11305C0DF011296ED91FC9113972081318142173E
S11305D05307B0F71296ED91FC911397FB83EA83CE
S11305E0D583C483BD83AC831396DC93CE931297D7
S11305F099878887FC0120812F5F2083DF91CF9129
S11306000895CF93DF93FC01A085B185C281D38186
S1130610848195819D838C83C481D58182819381DA
S11306209B838A8311968D919C911297E817F90701
S113063031F48481958112969C938E93119711863F
S113064010868C9181508C93DF91CF910895C0E0F6
S113065080E80E94130182E690E00E948A028C2FB7
S113066090E00E942D02CF5F8FE39CE90197F1F7A0
S113067000C0000088EE93E00E948B07E9CFCFEF23
S113068080EC0E9413018EE690E00E948A028C2F77
S113069090E00E942D02C1508FE39CE90197F1F78D
S11306A000C0000088E893E10E948B07E9CFEF9235
S11306B0FF920F930E9483018AE790E00E948A02CE
S11306C02FEF80E792E0215080409040E1F700C096
S11306D00000E0908304F090840401E020E030E026
S11306E044E650E065E870E087E293E00E94130678
S11306F0E0908104F090820420E030E044E650E091
S113070068E870E08FE393E00E9413060E94670696
S113071080E090E00F91FF90EF9008951BBC89EF6B
S11307208ABD8BE08EBD89B7806189BF089531E1B0
S1130730FC013083319722E220833197A3E3A08325
S1130740319760833197708331971082319760E8D5
S1130750608331971082319762E06083319763E060
S11307606083319764E06083319765E060833197FB
S113077066E06083319767E06083319768E0608367
S1130780319769E06083319760E16083319730830A
S1130790319732E13083319733E13083319734E15B
S11307A03083319735E13083319736E130833197A7
S11307B037E13083319738E13083319739E1308341
S11307C0319730E23083319731E23083319720839F
S11307D0319723E2208331974083319750833197B7
S11307E026E22083319727E22083319728E2208371
S11307F0319729E22083319720E32083319721E345
S11308002083869708950E948E03A0910D05B091D0
S11308100E05CD91CDBFDD91DEBFFF91EF91DF914C
S1130820CF91BF91AF919F918F917F916F915F9184
S11308304F913F912F911F910F91FF90EF90DF9077
S1130840CF90BF90AF909F908F907F906F905F906C
S11308504F903F902F901F900F900FBE0F900895D0
S113086081E008950F920FB6F8940F921F9211240D
S11308702F923F924F925F926F927F928F929F92AC
S1130880AF92BF92CF92DF92EF92FF920F931F939A
S11308902F933F934F935F936F937F938F939F9384
S11308A0AF93BF93CF93DF93EF93FF93A0910D0585
S11308B0B0910E050DB60D920EB60D920E94D4079E
S11308C0A0910D05B0910E05CD91CDBFDD91DEBF98
S11308D0FF91EF91DF91CF91BF91AF919F918F9154
S11308E07F916F915F914F913F912F911F910F9144
S11308F0FF90EF90DF90CF90BF90AF909F908F903C
S11309007F906F905F904F903F902F901F900F902B
S11309100FBE0F9008951F920F920FB60F921124DD
S11309202F933F934F935F936F937F938F939F93F3
S1130930AF93BF93EF93FF930E949706FF91EF91BC
S1130940BF91AF919F918F917F916F915F914F91E3
S11309503F912F910F900FBE0F901F901895E0912B
S1130960A804F091A9048081811107C08FEF9FEF43
S113097090938904809388040895E091A804F091E9
S1130980A9040580F681E02D0680F781E02D82819F
S1130990938190938904809388040895CF93DF937F
S11309A0EC018F89988D0E94E000CE010E94E00046
S11309B0DF91CF9108956F927F928F929F92AF9221
S11309C0BF92CF92DF92EF920F931F93CF93DF9357
S11309D0CDB7DEB74C01F5018789908D21503109DF
S11309E03C01620E731E20E00FC0822F90E0FB01D9
S11309F0E80FF91F3081D501A80FB91F59963C9310
S1130A008081882319F02F5F283078F3F50110A234
S1130A10F8E0FE1518F46894EE24E3F8F501E68A8C
S1130A20E1A212A2C50102960E94AB02C5010C9676
S1130A300E94AB02F501B186A08689E090E08E1990
S1130A40910995878487B38AA28A13A214A215A256
S1130A5016A217A2A801B401C3010E949703F501CD
S1130A6091838083C114D10419F0F601B182A0826C
S1130A70DF91CF911F910F91EF90DF90CF90BF90B6
S1130A80AF909F908F907F906F900895CF93C0E028
S1130A9010C08C2F90E09C01220F331F220F331FB4
S1130AA0220F331F820F931F84549B4F0E949D0279
S1130AB0CF5FC93070F383EB94E00E949D028AEA11
S1130AC094E00E949D028DE994E00E949D0284E9D5
S1130AD094E00E949D0283EB94E09093A904809398
S1130AE0A8048AEA94E09093A7048093A604CF9183
S1130AF00895CF93DF93EC010FB6F8940F92809191
S1130B0092048F5F8093920480910D0590910E055D
S1130B10892B59F4D0930E05C0930D05809192044E
S1130B20813099F40E94460510C080918E04811191
S1130B300CC0E0910D05F0910E0596898E898917F8
S1130B4020F0D0930E05C0930D0580918A048F5F29
S1130B5080938A042E8980918F04821710F4209345
S1130B608F0430E0BE016E5F7F4FC901880F991F6B
S1130B70880F991F880F991F820F931F84549B4FCE
S1130B800E94AF020F900FBE80918E04882321F043
S1130B9080910D0590910E05DF91CF9108950F93EB
S1130BA01F93CF93DF93EC01009190041091910473
S1130BB080910D0590910E0502960E940103C00FCD
S1130BC0D11FE0910D05F0910E05D383C283C017A8
S1130BD0D10768F460910D0570910E058091A6040B
S1130BE09091A7046E5F7F4F0E94D00217C060915E
S1130BF00D0570910E058091A8049091A9046E5F73
S1130C007F4F0E94D0028091880490918904C81774
S1130C10D90720F4D0938904C0938804DF91CF913D
S1130C201F910F9108952F923F924F925F926F926E
S1130C307F928F929F92AF92BF92CF92DF92EF9268
S1130C40FF920F931F93CF93DF933C011B015A0133
S1130C502901CA010E9464006C01892B71F088E2A9
S1130C6090E00E946400EC01892B19F0D88ECF8AA1
S1130C7006C0C6010E94E00002C0C0E0D0E0209798
S1130C8091F0950140E050E0812C912C5E016701C8
S1130C90E02E8201B101C3010E94DB04CE010E9457
S1130CA0790581E001C08FEFDF91CF911F910F9102
S1130CB0FF90EF90DF90CF90BF90AF909F908F9078
S1130CC07F906F905F904F903F902F900895EF9298
S1130CD0FF920F930F2EF6E8EF2EF4E0FF2EF02D87
S1130CE000E020E030E040E550E06BE870E08FEC9D
S1130CF097E00E941306813081F4F8948FEF9FEF00
S1130D00909389048093880481E080938E041092E8
S1130D109104109290040E9403040F91FF90EF90AD
S1130D200895809185048F5F809385040895EF92E0
S1130D30FF920F931F93CF93DF93809185048111CA
S1130D4073C0E0909004F09091048FEFE81AF80AD1
S1130D50F0929104E0929004E114F104B9F48091CA
S1130D60A8049091A9042091A6043091A70430937B
S1130D70A9042093A8049093A7048093A6048091C7
S1130D808B048F5F80938B040E94AF04809188044E
S1130D9090918904E816F90608F44BC0E091A80480
S1130DA0F091A9048081811107C08FEF9FEF909388
S1130DB08904809388043DC0E091A804F091A904BB
S1130DC00580F681E02DC681D7818A819B81E81652
S1130DD0F90628F490938904809388042AC08E012C
S1130DE00E5F1F4FC8010E9401038C899D89892BC6
S1130DF021F0CE010C960E9401038E8990918F04FC
S1130E00981710F480938F0490E09C01220F331FF5
S1130E10220F331F220F331F820F931FB8018454F4
S1130E209B4F0E94AF02BACF80918D048F5F809355
S1130E308D0480E0DF91CF911F910F91FF90EF908F
S1130E4008950F931F93CF93DF930FB6F8940F92E7
S1130E50809185048150809385048091850481115B
S1130E6052C080919204811133C04DC0E091A2041C
S1130E70F091A304C681D781CE010C960E94010390
S1130E808E010E5F1F4FC8010E9401038E8990914D
S1130E908F04981710F480938F0490E09C01220F24
S1130EA0331F220F331F220F331F820F931FB801EA
S1130EB084549B4F0E94AF029E89E0910D05F091EE
S1130EC00E058689981730F081E080938C0402C067
S1130ED0C0E0D0E080919D048111C8CFCD2B11F0EA
S1130EE00E94AF04C0918D04CC2359F00E94970650
S1130EF0882319F081E080938C04C150B9F71092D3
S1130F008D0480918C040F900FBE80E0DF91CF910F
S1130F101F910F910895CF93DF93EC01892B49F032
S1130F200E94910660E0CE010E94CF050E94210735
S1130F3001C080E0811102C00E943204DF91CF9190
S1130F400895CF93DF9324C00E949106C091940426
S1130F500E942107CC23E1F00FB6F8940F92E091A0
S1130F609904F0919A04C681D781CE0102960E9419
S1130F7001038091920481508093920480919304A0
S1130F808150809393040F900FBECE010E94CE0433
S1130F90809193048111D8CFDF91CF9108950E945D
S1130FA0A1070E943204FBCF80918504882321F09D
S1130FB081E080938C04089510928C0420918F0416
S1130FC001C02150822F90E0FC01EE0FFF1FEE0FB5
S1130FD0FF1FEE0FFF1FE80FF91FE454FB4F308192
S1130FE0332379F3AC01440F551F440F551F440FAD
S1130FF0551F480F591FDF010180F281E02D028047
S1131000F381E02D1296FC93EE93119741545B4FBC
S1131010E417F50729F442815381FD01528341838A
S1131020FC01EE0FFF1FEE0FFF1FEE0FFF1F8E0FD1
S11310309F1FFC01E454FB4F0180F281E02D868167
S1131040978190930E0580930D0520938F04089546
S1131050A29FB001B39FC001A39F700D811D1124F5
S1131060911DB29F700D811D1124911D0895F89456
S1051070FFCFAC
S1131072E70366726F6D2D7461736B313A006672A9
S11310826F6D2D7461736B323A0048454C4C4F5F5F
S113109252544F530074310074320049444C450099
S9030000FC
