S01500004672656552544F535F417070322E7372656393
S11300000C942A000C9447000C9447000C9447006D
S11300100C9447000C9447000C9447000C943E0544
S11300200C9447000C9447000C9447000C94470030
S11300300C9447000C9447000C9447000C94470020
S11300400C9447000C9447000C9447000C94470010
S11300500C94470011241FBECFE5D8E0DEBFCDBF0E
S113006010E0A0E6B0E0EAEFF9E102C005900D92DD
S1130070A639B107D9F725E0A6E9B0E001C01D9281
S1130080A531B207E1F70E948D030C94FB0C0C948C
S11300900000EBE9F0E080EA90E091838083138232
S11300A01282E7E9F0E087EE93E093838283118282
S11300B01082AFE9B0E014969C938E931397129636
S11300C0FC93EE93119708950F931F93CF93DF93AF
S11300D0EC010E94C70980919600811105C00E941D
S11300E0490081E080939600209709F02496CE0180
S11300F00197863E934008F056C0E0919B00F09132
S11301009C00ABE9B0E002C0DF01FC018281938175
S11301108C179D0720F4808191810097A9F780E0D6
S1130120E739F80709F442C00D911C9111970C5F4F
S11301301F4F808191818D939C93828193818C1B2D
S11301409D0B8930910510F1AF014C0F5D1FDA0151
S113015013969C938E931297D383C28312962D91F8
S11301603C9113976BE970E001C0BD01EB01A881DC
S1130170B98112968D919C91139782179307A8F3D6
S1130180EA01B983A883DB014D935C932281338117
S11301908091600090916100821B930B90936100A9
S11301A08093600005C000E010E002C000E010E0B1
S11301B00E94870AC801DF91CF911F910F91089582
S11301C00F931F93CF93DF93009741F1EC018C01C0
S11301D0045011090E94C709F80142815381ABE917
S11301E0B0E001C0DF01ED91FC91119722813381D0
S11301F024173507B8F32497F983E8830D931C93E8
S11302008A819B812091600030916100820F931F4D
S113021090936100809360000E94870ADF91CF91E0
S11302201F910F9108959BB39B7F9BBB84FF04C0D8
S11302309BB390619BBB03C09BB39F7E9BBB85FF1D
S113024004C09BB390629BBB03C09BB39F7D9BBBCD
S113025086FF04C09BB390649BBB03C09BB39F7B8E
S11302609BBB882324F49BB390689BBB03C09BB3C4
S11302709F779BBB9BB398609BBBEFE9FFE03197F3
S1130280F1F700C000009BB3977F9BBBEFE9FFE051
S11302903197F1F700C0000080FF04C09BB3906168
S11302A09BBB03C09BB39F7E9BBB81FF04C09BB3DE
S11302B090629BBB03C09BB39F7D9BBB82FF04C02A
S11302C09BB390649BBB03C09BB39F7B9BBB83FF8F
S11302D004C08BB380688BBB03C08BB38F778BBB9D
S11302E08BB388608BBB8FE99FE00197F1F700C067
S11302F000008BB3877F8BBBEFE9FFE03197F1F709
S113030000C0000008958AB38C6F8ABB83E00E940A
S113031013018FE79EE30197F1F700C0000083E02B
S11303200E9413018FE79EE30197F1F700C00000DC
S113033083E00E9413018FE79EE30197F1F700C069
S1130340000082E00E94130188E20E94130188E009
S11303500E94130181E00E94130186E00E941301B0
S11303608CE00E9413019FEF29EF80E09150204020
S11303708040E1F700C0000008959BB394609BBBEC
S113038084FF04C09BB390619BBB03C09BB39F7E5F
S11303909BBB85FF04C09BB390629BBB03C09BB314
S11303A09F7D9BBB86FF04C09BB390649BBB03C033
S11303B09BB39F7B9BBB882324F49BB390689BBB1C
S11303C003C09BB39F779BBB9BB398609BBBEFE938
S11303D0FFE03197F1F700C000009BB3977F9BBB10
S11303E0EFE9FFE03197F1F700C0000080FF04C09F
S11303F09BB390619BBB03C09BB39F7E9BBB81FF60
S113040004C09BB390629BBB03C09BB39F7D9BBB0B
S113041082FF04C09BB390649BBB03C09BB39F7BD0
S11304209BBB83FF04C08BB380688BBB03C08BB3BF
S11304308F778BBB8BB388608BBB8FE99FE0019771
S1130440F1F700C000008BB3877F8BBBEFE9FFE0BF
S11304503197F1F700C0000008951F93CF93DF9305
S113046000D000D01F92CDB7DEB7AC01892BA9F51F
S113047080E3840F0E94BD0144C09A01ADECBCEC42
S11304800E94E30C96958795969587959695879502
S11304909C01220F331F880F991F880F991F880F03
S11304A0991F820F931F9A01281B390BC901E1E0A0
S11304B0F0E0EC0FFD1FE10FF11D17FDFA95805DD3
S11304C080839A010E94E30CAC015695479556959A
S11304D04795569547951F5F01C010E0411551059A
S11304E061F611500CC0E1E0F0E0EC0FFD1FE10FEC
S11304F0F11D17FDFA9580810E94BD0111501F3F27
S113050091F70F900F900F900F900F90DF91CF9174
S11305101F9108950F931F93CF938C01C0E003C0E4
S11305200E94BD01CF5FF801EC0FF11D80818111A4
S1130530F7CFCF911F910F910895FC0103969283F9
S113054081832FEF3FEF34832383968385839087C2
S1130550878310820895FC01118610860895CF9335
S1130560DF939C01FB01DC011196CD91DC91129784
S1130570D383C2838C819D81958384838C819D8167
S1130580DC0113967C936E9312977D836C83318781
S11305902087F90180818F5F8083DF91CF91089557
S11305A0CF93DF93EB01488159814F3F2FEF5207DF
S11305B021F4FC01A781B0850DC0DC01139601C0B4
S11305C0DF011296ED91FC9113972081318142173E
S11305D05307B0F71296ED91FC911397FB83EA83CE
S11305E0D583C483BD83AC831396DC93CE931297D7
S11305F099878887FC0120812F5F2083DF91CF9129
S11306000895CF93DF93FC01A085B185C281D38186
S1130610848195819D838C83C481D58182819381DA
S11306209B838A8311968D919C911297E817F90701
S113063031F48481958112969C938E93119711863F
S113064010868C9181508C93DF91CF91089587B35C
S11306508E7F87BB88B3816088BB87B3826087BB8A
S1130660B099FECFB09BFECF98B382E0892788BBB8
S1130670F7CFC0E020E048EC50E060E070E080910B
S11306801305909114050E941E078823B9F080E891
S11306900E94130182E690E00E948A028C2F90E06F
S11306A00E942D02CF5F20E040E050E060E070E067
S11306B080911305909114050E948C0688EE93E0B6
S11306C00E94F90AD7CFCFEF20E048EC50E060E079
S11306D070E080911305909114050E941E078823F1
S11306E0B9F080EC0E9413018EE690E00E948A0229
S11306F08C2F90E00E942D02C15020E040E050E099
S113070060E070E080911305909114050E948C06BE
S113071088EE93E00E94F90AD7CFEF92FF920F93ED
S11307200E94830180E80E9413018AE790E00E94FE
S11307308A022FEF83ED90E3215080409040E1F74F
S113074000C0000043E060E081E00E9462069093F4
S113075014058093130520E040E050E060E070E071
S11307600E948C06E0908704F090880401E020E069
S113077030E044E650E067E870E089E393E00E94EB
S11307804909E0908704F090880420E030E044E6D2
S113079050E06AE870E083E693E00E944909E09043
S11307A08704F090880420E030E044E650E06DE8EF
S11307B070E087E293E00E9449090E949D0980E06D
S11307C090E00F91FF90EF9008951BBC89EF8ABDD4
S11307D08BE08EBD89B7806189BF089531E1FC014A
S11307E03083319722E220833197A3E3A0833197AA
S11307F060833197708331971082319760E860830A
S113080031971082319762E06083319763E06083AF
S1130810319764E06083319765E06083319766E0E7
S11308206083319767E06083319768E06083319734
S113083069E06083319760E1608331973083319759
S113084032E13083319733E13083319734E13083BF
S1130850319735E13083319736E13083319737E191
S11308603083319738E13083319739E130833197E0
S113087030E23083319731E23083319720833197EE
S113088023E220833197408331975083319726E2C6
S11308902083319727E22083319728E22083319700
S11308A029E22083319720E32083319721E32083B9
S11308B0869708950E94E503A0911105B091120551
S11308C0CD91CDBFDD91DEBFFF91EF91DF91CF914F
S11308D0BF91AF919F918F917F916F915F914F9154
S11308E03F912F911F910F91FF90EF90DF90CF9048
S11308F0BF90AF909F908F907F906F905F904F903C
S11309003F902F901F900F900FBE0F90089581E09D
S113091008950F920FB6F8940F921F9211242F92FC
S11309203F924F925F926F927F928F929F92AF927B
S1130930BF92CF92DF92EF92FF920F931F932F9368
S11309403F934F935F936F937F938F939F93AF9353
S1130950BF93CF93DF93EF93FF93A0911105B091D1
S113096012050DB60D920EB60D920E94400BA09189
S11309701105B0911205CD91CDBFDD91DEBFFF9180
S1130980EF91DF91CF91BF91AF919F918F917F9123
S11309906F915F914F913F912F911F910F91FF9014
S11309A0EF90DF90CF90BF90AF909F908F907F900B
S11309B06F905F904F903F902F901F900F900FBEBD
S11309C00F9008950F920FB6F8940F921F9211246E
S11309D02F923F924F925F926F927F928F929F924B
S11309E0AF92BF92CF92DF92EF92FF920F931F9339
S11309F02F933F934F935F936F937F938F939F9323
S1130A00AF93BF93CF93DF93EF93FF93A09111051F
S1130A10B09112050DB60D920EB60D920E94CD093D
S1130A2081110E94400BA0911105B0911205CD9146
S1130A30CDBFDD91DEBFFF91EF91DF91CF91BF91EB
S1130A40AF919F918F917F916F915F914F913F9162
S1130A502F911F910F91FF90EF90DF90CF90BF9057
S1130A60AF909F908F907F906F905F904F903F904A
S1130A702F901F900F900FBE0F9008950E94E204D4
S1130A8018950FB6F8940F92FC01828D811102C063
S1130A9081E001C080E00F900FBE08950FB6F89476
S1130AA00F92FC01228D838D281302C081E001C0C6
S1130AB080E00F900FBE08950F931F93CF93DF93A1
S1130AC0EC01042F1A8D4C8D41110CC08881998141
S1130AD0892B09F042C08A819B810E94910C1B8260
S1130AE01A8242C0011117C050E08C819D810E947E
S1130AF0F20C2C8D8C819D81820F911D9D838C83A2
S1130B002A813B818217930750F1888199819D83C3
S1130B108C8380E029C050E08E819F810E94F20C7A
S1130B208C8D90E09195819591092E813F81280FBC
S1130B30391F3F832E83488159812417350730F4A8
S1130B402A813B81820F931F9F838E83023049F455
S1130B50112349F0115080E007C080E005C080E017
S1130B6003C080E001C080E01F5F1A8FDF91CF9146
S1130B701F910F910895FC01448D4423A9F050E086
S1130B8026813781240F351F378326838281938101
S1130B902817390720F08081918197838683CB01C0
S1130BA0668177810E94F20C08951F93CF93DF939F
S1130BB0EC010FB6F8940F921E8D0BC0898988231F
S1130BC051F0CE0141960E94A60B81110E942B0C7C
S1130BD0115011169CF38FEF8E8F0F900FBE0FB62E
S1130BE0F8940F921D8D0BC08885882351F0CE0197
S1130BF008960E94A60B81110E942B0C115011160D
S1130C009CF38FEF8D8F0F900FBEDF91CF911F91CB
S1130C100895CF93DF93EC010FB6F8940F92E88117
S1130C20F9818B8D90E02C8D30E0829FA001839F11
S1130C30500D929F500D11244E0F5F1F5B834A830A
S1130C401A8EFD83EC830197289FA001299F500DE4
S1130C50389F500D1124CF01840F951F9F838E83DD
S1130C608FEF8D8F8E8F61110CC08885882389F05A
S1130C70CE0108960E94A60B882359F00E9489048D
S1130C8008C0CE0108960E949D02CE0141960E94A2
S1130C909D020F900FBE81E0DF91CF9108950F93D5
S1130CA01F93F801611103C01183008302C05183B3
S1130CB04083838F648F61E0CF010E9409061F91F6
S1130CC00F910895DF92EF92FF920F931F93CF93AA
S1130CD0DF93E82EF62ED42E662321F0869FC001E2
S1130CE0112402C080E090E04F960E946400EC0161
S1130CF0009749F08C012D2DAC01415E5F4F6F2DA3
S1130D008E2D0E944F06CE01DF91CF911F910F913E
S1130D10FF90EF90DF900895CF92DF92EF92FF92D1
S1130D200F931F93CF93DF9300D000D01F92CDB7C2
S1130D30DEB78C017B015D834C83C22ED12C0FB6B0
S1130D40F8940F92F801928D838D981718F0F2E0C1
S1130D50CF1219C04C2DB701C8010E945C05F801DF
S1130D609189992349F0C80141960E94A60B8823D2
S1130D7031F00E94890403C081110E9489040F90FC
S1130D800FBE81E04DC08C819D81892B21F40F9091
S1130D900FBE80E045C0D11006C0CE0101960E946E
S1130DA0EE0BDD24D3940F900FBE0E94C7090FB63B
S1130DB0F8940F92F801858D8F3F09F4158EF80190
S1130DC0868D8F3F09F4168E0F900FBEBE016C5FA7
S1130DD07F4FCE0101960E94F90B81111BC0C801FF
S1130DE00E944E05882381F06C817D81C80108969C
S1130DF00E94940BC8010E94D5050E94870A8111A4
S1130E009ECF0E9489049BCFC8010E94D5050E94F1
S1130E10870A95CFC8010E94D5050E94870A80E001
S1130E200F900F900F900F900F90DF91CF911F9123
S1130E300F91FF90EF90DF90CF9008958F929F9243
S1130E40BF92CF92DF92EF92FF920F931F93CF93B3
S1130E50DF9300D000D01F92CDB7DEB78C016B01B9
S1130E605D834C83B22EE12C0FB6F8940F92F801F7
S1130E70F28CFF2091F186809780B601C8010E9410
S1130E80BB05B11019C0FA94F801F28E80819181EA
S1130E90892B29F40E94D10CF80193838283F801F1
S1130EA080858823B1F0C80108960E94A60B882388
S1130EB081F00E9489040DC0F8019782868281899D
S1130EC0882339F0C80141960E94A60B81110E9423
S1130ED089040F900FBE81E061C08C819D81892BB4
S1130EE021F40F900FBE80E059C0E11006C0CE017E
S1130EF001960E94EE0BEE24E3940F900FBE0E9425
S1130F00C7090FB6F8940F92F801858D8F3F09F445
S1130F10158EF801868D8F3F09F4168E0F900FBE43
S1130F20BE016C5F7F4FCE0101960E94F90B8111C7
S1130F3029C0C8010E9441058823F1F0F80180818D
S1130F409181892B49F40FB6F8940F928281938191
S1130F500E942F0C0F900FBE6C817D81C8014196B9
S1130F600E94940BC8010E94D5050E94870A811132
S1130F707BCF0E94890478CFC8010E94D5050E94C6
S1130F80870A72CFC8010E94D5050E94870AC8014A
S1130F900E944105882309F467CF80E00F900F90E9
S1130FA00F900F900F90DF91CF911F910F91FF90B1
S1130FB0EF90DF90CF90BF909F908F900895E09135
S1130FC0AC04F091AD048081811107C08FEF9FEFD5
S1130FD090938D0480938C040895E091AC04F09177
S1130FE0AD040580F681E02D0680F781E02D828135
S1130FF0938190938D0480938C040895CF93DF9311
S1131000EC018F89988D0E94E000CE010E94E000DF
S1131010DF91CF9108956F927F928F929F92AF92BA
S1131020BF92CF92DF92EF920F931F93CF93DF93F0
S1131030CDB7DEB74C01F5018789908D2150310978
S11310403C01620E731E20E00FC0822F90E0FB0172
S1131050E80FF91F3081D501A80FB91F59963C93A9
S11310608081882319F02F5F283078F3F50110A2CE
S1131070F8E0FE1518F46894EE24E3F8F501E68A26
S1131080E1A212A2C50102960E94AB02C5010C9610
S11310900E94AB02F501B186A08689E090E08E192A
S11310A0910995878487B38AA28A13A214A215A2F0
S11310B016A217A2A801B401C3010E94EE03F50110
S11310C091838083C114D10419F0F601B182A08206
S11310D0DF91CF911F910F91EF90DF90CF90BF9050
S11310E0AF909F908F907F906F900895CF93C0E0C2
S11310F010C08C2F90E09C01220F331F220F331F4E
S1131100220F331F820F931F80549B4F0E949D0216
S1131110CF5FC93070F387EB94E00E949D028EEAA2
S113112094E00E949D0281EA94E00E949D0288E975
S113113094E00E949D0287EB94E09093AD04809329
S1131140AC048EEA94E09093AB048093AA04CF910C
S11311500895CF93DF93EC010FB6F8940F9280912A
S113116096048F5F809396048091110590911205E7
S1131170892B59F4D0931205C093110580919604DC
S1131180813099F40E94760810C0809192048111F4
S11311900CC0E0911105F091120596898E8989178A
S11311A020F0D0931205C093110580918E048F5FB7
S11311B080938E048E8990919304981710F48093F1
S11311C0930490E09C01220F331F220F331F220F40
S11311D0331F820F931FBE016E5F7F4F80549B4F5E
S11311E00E94AF020F900FBE80919204882351F0A9
S11311F0E0911105F091120596898E89981710F4E3
S11312000E948904DF91CF9108950F931F93CF9388
S1131210DF93EC01009194041091950480911105E1
S11312209091120502960E940103C00FD11FE09114
S11312301105F0911205D383C283C017D10768F456
S113124060911105709112058091AA049091AB04EC
S11312506E5F7F4F0E94D00217C06091110570919C
S113126012058091AC049091AD046E5F7F4F0E9493
S1131270D00280918C0490918D04C817D90720F472
S1131280D0938D04C0938C04DF91CF911F910F9163
S113129008952F923F924F925F926F927F928F9216
S11312A09F92AF92BF92CF92DF92EF92FF920F93F1
S11312B01F93CF93DF933C011B015A012901CA01FB
S11312C00E9464006C01892B71F088E290E00E9416
S11312D06400EC01892B19F0D88ECF8A06C0C601B0
S11312E00E94E00002C0C0E0D0E0209791F0950198
S11312F040E050E0812C912C5E016701E02E8201D8
S1131300B101C3010E940B08CE010E94A90881E02B
S113131001C08FEFDF91CF911F910F91FF90EF905C
S1131320DF90CF90BF90AF909F908F907F906F9001
S11313305F904F903F902F900895EF92FF920F93FC
S11313400F2EFAE8EF2EF4E0FF2EF02D00E020E05F
S113135030E040E550E060E970E08DE39BE00E94FE
S11313604909813081F4F8948FEF9FEF90938D04B5
S113137080938C0481E080939204109295041092DF
S113138094040E945A040F91FF90EF900895809165
S113139089048F5F809389040895DF92EF92FF920E
S11313A00F931F93CF93DF9380918904811197C08A
S11313B0E0909404F09095048FEFE81AF80AF09204
S11313C09504E0929404E114F104B9F48091AC041E
S11313D09091AD042091AA043091AB043093AD04F4
S11313E02093AC049093AB048093AA0480918F045F
S11313F08F5F80938F040E94DF0780918C0490910B
S11314008D04E816F90628F4D12C53C0DD24D394B6
S113141001C0D12CE091AC04F091AD048081811124
S113142007C08FEF9FEF90938D0480938C0441C08D
S1131430E091AC04F091AD040580F681E02DC68105
S1131440D7818A819B81E816F90628F490938D044C
S113145080938C042EC08E010E5F1F4FC8010E9422
S113146001038C899D89892B21F0CE010C960E9461
S113147001038E8990919304981710F48093930438
S113148090E09C01220F331F220F331F220F331FC2
S1131490820F931FB80180549B4F0E94AF029E8914
S11314A0E0911105F09112058689981708F0AECFE6
S11314B0B1CFE0911105F0911205868990E0FC010D
S11314C0EE0FFF1FEE0FFF1FEE0FFF1F8E0F9F1F6C
S11314D0FC01E054FB4F8081823040F409C08091CC
S11314E091048F5F80939104D12C02C0DD24D394A6
S11314F080919004882311F0DD24D3948D2DDF9105
S1131500CF911F910F91FF90EF90DF9008950F936B
S11315101F93CF93DF930FB6F8940F9280918904B1
S113152081508093890480918904811158C08091ED
S11315309604811133C056C0E091A604F091A7042B
S1131540C681D781CE010C960E9401038E010E5FE5
S11315501F4FC8010E9401038E899091930498172C
S113156010F48093930490E09C01220F331F220F08
S1131570331F220F331F820F931FB80180549B4FD8
S11315800E94AF029E89E0911105F09112058689AF
S1131590981730F081E08093900402C0C0E0D0E05E
S11315A08091A1048111C8CFCD2B11F00E94DF07D7
S11315B0C0919104CC2359F00E94CD09882319F0DD
S11315C081E080939004C150B9F710929104809106
S11315D09004882331F00E94890481E003C080E0F4
S11315E001C080E00F900FBEDF91CF911F910F914A
S11315F00895CF93DF93EC01892B49F00E94C7092A
S113160060E0CE010E9405090E94870A01C080E0C3
S1131610811102C00E948904DF91CF910895CF9374
S1131620DF9324C00E94C709C09198040E94870ACE
S1131630CC23E1F00FB6F8940F92E0919D04F09161
S11316409E04C681D781CE0102960E940103809137
S113165096048150809396048091970481508093DE
S113166097040F900FBECE010E94FE07809197044D
S11316708111D8CFDF91CF9108950E940F0BFDCF38
S113168080918904882321F081E080939004089557
S1131690109290042091930401C02150822F90E075
S11316A0FC01EE0FFF1FEE0FFF1FEE0FFF1FE80FF1
S11316B0F91FE054FB4F3081332379F3AC01440F1D
S11316C0551F440F551F440F551F480F591FDF0165
S11316D00180F281E02D0280F381E02D1296FC93CB
S11316E0EE9311974D535B4FE417F50729F44281AC
S11316F05381FD0152834183FC01EE0FFF1FEE0F66
S1131700FF1FEE0FFF1F8E0F9F1FFC01E054FB4FC6
S11317100180F281E02D8681978190931205809358
S11317201105209393040895CF93DF93EB01609107
S1131730110570911205645F7F4F0E94D00261E031
S1131740CE010E940509DF91CF9108950F931F9355
S1131750CF93DF93DC011596ED91FC911697C6812A
S1131760D7818E01045F1F4FC8010E94010380913D
S1131770890481111CC00A501109C8010E94010387
S11317808E8990919304981710F48093930490E0B9
S11317909C01220F331F220F331F220F331F820F8E
S11317A0931FB80180549B4F0E94AF0205C0B8013B
S11317B081EA94E00E94AF029E89E0911105F091C4
S11317C012058689891720F481E08093900401C072
S11317D080E0DF91CF911F910F91089520918F04A4
S11317E0FC01208320919404309195043283218359
S11317F00895CF93DF93FC010FB6F8940F924091B4
S1131800940450919504908180918F04981729F045
S11318108181928148175907B0F421813281CA012C
S1131820821B930BEB01A881B9818A179B0768F48B
S1131830CF01241B350B2A0F3B1F398328830E94B9
S1131840EE0B80E003C081E001C081E00F900FBE89
S1131850DF91CF91089581E08093900408950F93D0
S11318601F93CF93DF93FC01892B09F455C026897C
S1131870A0911105B091120556968C91281708F085
S11318804BC084859585992364F0A0911105B0918E
S1131890120556963C9189E090E0831B9109958747
S11318A084878285938530E0A901440F551F440F36
S11318B0551F440F551F240F351F20543B4F8217CB
S11318C0930719F58F01EF012296CE010E940103BF
S11318D0E0911105F09112058689F801868B9091AB
S11318E09304981710F48093930490E09C01220FC2
S11318F0331F220F331F220F331F820F931FBE018A
S113190080549B4F0E94AF0207C0A0911105B09173
S1131910120556968C91868BDF91CF911F910F9172
S113192008950F931F93CF93DF93FC01892B79F1D3
S113193082A1815082A3268991A1291751F1811195
S11319402AC0EF018F010E5F1F4FC8010E940103DF
S113195089A18E8B29E030E0281B31093D872C8733
S113196090919304981710F48093930490E09C0151
S1131970220F331F220F331F220F331F820F931F97
S1131980B80180549B4F0E94AF0281E005C080E003
S113199003C080E001C080E0DF91CF911F910F91DF
S11319A008958091110590911205892B39F0E091E9
S11319B01105F091120582A18F5F82A38091110518
S11319C0909112050895A29FB001B39FC001A39FF7
S11319D0700D811D1124911DB29F700D811D112464
S11319E0911D0895FB01DC0102C001900D9241504C
S10D19F05040D8F70895F894FFCF93
S11319FAE70366726F6D2D7461736B313A00667218
S1131A0A6F6D2D7461736B323A0048656C6C6F2D7F
S1131A1A52544F532D32007431007432007433001F
S1091A2A49444C45000094
S9030000FC
